:1000000021C0B4C3B3C3B2C3B1C3B0C3AFC3AEC3E3
:10001000ADC3ACC3ABC3AAC3A9C3A8C3A7C3A6C37C
:10002000A5C3A4C3A3C3A2C346C07CC0B2C0F4C0CE
:1000300030C16CC1AEC1EAC120C256C2010001018B
:100040000007760011241FBECFEFD2E0DEBFCDBF88
:10005000ECE3F0E040E017C0B591A5913591259112
:10006000059107FD0CC095918591EF01F92FE82FBF
:1000700005900D92A217B307D9F7FE0104C01D9297
:10008000A217B307E1F7E334F40731F76AD267C385
:04009000F894FFCF12
:10009400E82F85B18E7F85B985B18D7F85B98E2F87
:1000A40090E08A30910508F059C2FC01EC5EFF4FE4
:1000B400099485B1816085B985B18E7F85B985B193
:1000C400816085B985B18E7F85B985B1826085B936
:1000D40085B1816085B985B18E7F85B985B181602F
:1000E40085B985B18E7F85B985B1816085B985B1C2
:1000F4008E7F85B985B1816085B985B18E7F85B9DB
:1001040085B1816085B985B18E7F85B985B18160FE
:1001140085B985B18E7F85B985B18D7F85B90895FF
:1001240085B1816085B985B18E7F85B985B18160DE
:1001340085B985B18E7F85B985B1816085B985B171
:100144008E7F85B985B1816085B985B18E7F85B98A
:1001540085B1816085B985B18E7F85B985B18260AD
:1001640085B985B1816085B985B18E7F85B985B141
:10017400816085B985B18E7F85B985B18D7F85B95B
:1001840085B1816085B985B18E7F85B9089585B1C2
:10019400816085B985B18E7F85B985B1826085B965
:1001A40085B1816085B985B18E7F85B985B18D7F33
:1001B40085B985B1816085B985B18E7F85B985B1F1
:1001C400826085B985B1816085B985B18E7F85B935
:1001D40085B1816085B985B18E7F85B985B18D7F03
:1001E40085B985B1816085B985B18E7F85B985B1C1
:1001F400826085B985B1816085B985B18E7F85B905
:1002040085B1816085B985B18E7F85B985B18D7FD2
:1002140085B9089585B1816085B985B18E7F85B929
:1002240085B1826085B985B1816085B985B18E7FDC
:1002340085B985B18D7F85B985B1816085B985B171
:100244008E7F85B985B1816085B985B18E7F85B989
:1002540085B1826085B985B1816085B985B18E7FAC
:1002640085B985B1816085B985B18E7F85B985B140
:10027400816085B985B18E7F85B985B1816085B985
:1002840085B18E7F85B985B18D7F85B9089585B196
:10029400816085B985B18E7F85B985B1826085B964
:1002A40085B1816085B985B18E7F85B985B181605D
:1002B40085B985B18E7F85B985B18D7F85B985B1C5
:1002C400816085B985B18E7F85B985B1816085B935
:1002D40085B18E7F85B985B1826085B985B181602C
:1002E40085B985B18E7F85B985B1816085B985B1C0
:1002F4008E7F85B985B18D7F85B985B1816085B9DA
:1003040085B18E7F85B9089585B1816085B985B140
:100314008E7F85B985B1826085B985B1816085B9E3
:1003240085B18E7F85B985B1816085B985B18E7FB0
:1003340085B985B18D7F85B985B1816085B985B170
:100344008E7F85B985B1826085B985B1816085B9B3
:1003540085B18E7F85B985B1816085B985B18E7F80
:1003640085B985B18D7F85B985B1816085B985B140
:100374008E7F85B985B1826085B985B1816085B983
:1003840085B18E7F85B985B18D7F85B9089585B195
:10039400816085B985B18E7F85B985B1826085B963
:1003A40085B1816085B985B18E7F85B985B181605C
:1003B40085B985B18E7F85B985B1816085B985B1EF
:1003C4008E7F85B985B1816085B985B18E7F85B908
:1003D40085B1816085B985B18E7F85B985B18D7F01
:1003E40085B985B1816085B985B18E7F85B985B1BF
:1003F400826085B985B1816085B985B18E7F85B903
:1004040085B18D7F85B9089585B1816085B985B140
:100414008E7F85B985B1816085B985B18E7F85B9B7
:1004240085B1816085B985B18E7F85B985B18160DB
:1004340085B985B18E7F85B985B1816085B985B16E
:100444008E7F85B985B1826085B985B1816085B9B2
:1004540085B18E7F85B985B1816085B985B18E7F7F
:1004640085B985B1816085B985B18E7F85B985B13E
:100474008D7F85B9089585B1816085B985B18E7FF9
:1004840085B985B1826085B985B1816085B985B149
:100494008E7F85B985B1816085B985B18E7F85B937
:1004A40085B1816085B985B18E7F85B985B181605B
:1004B40085B985B18E7F85B985B1816085B985B1EE
:1004C4008E7F85B985B1816085B985B18E7F85B907
:1004D40085B1816085B985B18E7F85B985B18D7F00
:1004E40085B9089585B1816085B985B18E7F85B957
:1004F40085B1826085B985B1816085B985B18E7F0A
:1005040085B985B1816085B985B18E7F85B985B19D
:100514008D7F85B985B1816085B985B18E7F85B9B7
:1005240085B1826085B985B1816085B985B18E7FD9
:1005340085B985B1816085B985B18E7F85B985B16D
:10054400816085B985B18E7F85B985B1816085B9B2
:0E05540085B18E7F85B985B18D7F85B90895FB
:1005620084B18F6784B984B18F7784B985B1887774
:1005720085B985B1886785B987B18E7F87B987B11B
:10058200826087B988B1897F88B988B18E7F88B93E
:10059200C5D0DCD0182F809300016AE0CBD0F82EB2
:1005A200092F1F9B18C080910001833618F08EE13D
:1005B20080930001809100018F5F809300018FE39F
:1005C2009CE90197F1F700C00000809100016AE008
:1005D200B1D0F82E092F94D09C016BE070E07CD052
:1005E200EB01C9016EE670E077D0262FCE016AE0FA
:1005F20070E072D0E82E85B1877F85B9822F49DD00
:1006020085B1846085B98FEC97E00197F1F700C05E
:10061200000085B18B7F85B985B1886085B985B1C8
:100622008F7E85B98E2D35DD85B1846085B98FECDD
:1006320097E00197F1F700C0000085B18B7F85B983
:1006420085B1806185B985B18F7D85B98F2D21DD19
:1006520085B1846085B98FEC97E00197F1F700C00E
:10066200000085B18B7F85B985B1806285B985B17E
:100672008F7B85B9802F0DDD85B1846085B98FECC4
:1006820097E00197F1F700C0000085B18B7F85B933
:1006920085B1806485B98091000190E0C817D907BF
:1006A20020F488B1826088B903C088B18D7F88B98F
:1006B20080910001181709F474CFF999FECF11BC8B
:1006C2008091000180BD8FB384608FBB8FB3826045
:0806D2008FBB1091000165CF00
:1006DA00AA1BBB1B51E107C0AA1FBB1FA617B7075E
:1006EA0010F0A61BB70B881F991F5A95A9F780957A
:0806FA009095BC01CD010895AB
:10070200EAE7F0E080818064808380917A0086FD50
:0C071200FCCF8091780090917900089550
:10071E00ECE7F0E01082AAE7B0E08C9186688C934B
:08072E0080818064808308953E
:10073600991B79E004C0991F961708F0961B881F2D
:080746007A95C9F7809508952A
:10074E00F999FECF11BC8FB381608FBB80B5089530
:0E075E00EC0107D005D0CE0105D0CE0104D0AD
:02076C0049CC76
:02076E000895EC
:020770000895EA
:020772000895E8
:020774008DDC1A
:010776001E64
:00000001FF
